:020000040800F2
:10000000E006002001010008090100080B010008BA
:100010000D0100080F010008110100080000000098
:1000200000000000000000000000000013010008B4
:10003000150100080000000017010008E929000868
:100040001B0100081B0100081B0100081B01000820
:100050001B0100088D2900081B0100081B01000876
:100060001B0100081B0100081B010008F503000824
:100070001B0100081B0100081B0100081B010008F0
:100080001B0100081B0100081B0100081B010008E0
:100090001B0100081B0100081B0100081B010008D0
:1000A0001B0100081B0100081B0100081B010008C0
:1000B0001B0100081B0100081B0100081B010008B0
:1000C0001B0100081B0100081B0100081B010008A0
:1000D0001B0100081B0100081B0100081B01000890
:1000E0001B0100081B0100081B010008DFF80CD0F1
:1000F00000F040F800480047F52E0008E006002018
:100100000648804706480047FEE7FEE7FEE7FEE7B1
:10011000FEE7FEE7FEE7FEE7FEE7FEE77D2A0008D2
:10012000ED000008D2B201E000F8012B491EFBD21D
:1001300070470022F6E710B513460A4604461946F2
:10014000FFF7F0FF204610BD30B50B4601460020FA
:100150002022012409E021FA02F59D4205D303FA89
:1001600002F5491B04FA02F52844151EA2F101020A
:10017000F1DC30BD064C074D06E0E06840F00103BD
:1001800094E8070098471034AC42F6D3FFF7B2FF6B
:10019000D4330008F43300080EB512481249086041
:1001A00000204860002110488160C1600121016188
:1001B0000021416101218161C904C16100F070FB2E
:1001C00008B100F0BBF90020009001200190002050
:1001D00002906946044800F07DFA08B100F0AEF9DB
:1001E0000EBD0000002401403802002070B5044616
:1001F00000252068806800F00100F0B12068806868
:1002000020F001002168886001F076F905460EE0D3
:1002100001F072F9401B022809D9A06A40F01000D1
:10022000A062E06A40F00100E062012070BD206839
:10023000806800F001000028EAD10020F6E770B5E0
:1002400005466C6AA06A00F05000E0B9A06A40F46C
:100250000070A0622068806800F46020B0F5602F14
:100260000DD1E06858B9A06A20F48070A062A06A3D
:1002700000F4805018B9A06A40F00100A062204646
:1002800000F00AFB03E0206A016B2846884770BD36
:1002900070B505466C6AA06A40F04000A062E06A52
:1002A00040F00400E062204600F0F8FA70BD70B53E
:1002B0000446656A284600F0F0FA70BD38B5044679
:1002C0000025002000902068806800F0010080BBBD
:1002D0002068806840F00100216888601648006846
:1002E0001649B0FBF1F0009002E00098401E00902B
:1002F00000980028F9D101F0FFF8054613E001F05D
:10030000FBF8401B02280ED9A06A40F01000A06242
:10031000E06A40F00100E06200BF002084F82400A1
:1003200000BF012038BD2068806800F0010000286F
:10033000E5D00020F6E700002C00002040420F002E
:1003400010B50446207803281AD0042831D16078EB
:10035000012804D122480088401C21490880607887
:10036000032804D11E480088401D1D49088060787C
:10037000042804D11A4800880A301949088018E076
:100380006078012804D116480088401E144908806E
:100390006078032804D112480088401F1049088063
:1003A0006078042804D10E4800880A380C49088077
:1003B00000BF00BF0F210B48FFF7BBFE6378227818
:1003C00009A1084802F0FEFB064A0121002002F0C4
:1003D0004BFA02F063FA4FF4967000F0ECFE10BD99
:1003E000000000203000002042746E3A2025692C65
:1003F0002569000010B5434800F0F0FC4248006851
:10040000C0F30724002C6AD0404800781E2804DA84
:100410003E480078401C3D490870601E012101FAE9
:1004200000F03B49096808433949086039480470BD
:1004300001203849487035480078042801DB012044
:1004400000E00020314909780A2901DA012100E0A1
:100450000021084070B1201D012101FA00F02C4953
:10046000096808432A49086002202A49487008465A
:10047000FFF766FF254800780A2801DB012000E02D
:100480000020224909781E2901DA012100E000211B
:10049000084078B104F10900012101FA00F01C497B
:1004A000096808431A49086003201A494870084639
:1004B000FFF746FF154800781E2822D104F11300EB
:1004C000012101FA00F01249096808431049086047
:1004D0000420104948700846FFF732FF11E00D482C
:1004E000007840B10B484078012804D10949487090
:1004F0000846FFF725FF00200449087005490870E9
:10050000487010BDA402002020000020240000201C
:10051000180000201E00002010B5046863604468C5
:10052000102C04D10468A2600468E16003E0046850
:10053000A1600468E26010BD00BFFEE770470000E4
:1005400002460021501E012303FA00F01E4B1B68D7
:100550001840002836D002F11300012303FA00F1FD
:1005600019480068084030B1174800688843164BA6
:1005700018600420704702F10900012303FA00F11A
:1005800011480068084030B10F48006888430E4B9E
:1005900018600320EEE7101D012303FA00F10A485A
:1005A0000068084030B1084800688843064B18606E
:1005B0000220DFE704480068044B1B88984308B911
:1005C0000120D7E70020D5E7180000201C000020FC
:1005D000F8B5044600260020009000BF94F82400DF
:1005E000012801D10220F8BD012084F8240000BFB9
:1005F0002046FFF7FBFD0646002E62D1A06A20F4DC
:10060000885040F00200A062022001F04DF830490D
:100610000968B1FBF0F04000009002E00098401E35
:10062000009000980028F9D12046FFF747FE206887
:10063000806840F008002168886000F05DFF054692
:1006400011E000F059FF401B0A280CD9A06A20F0E5
:10065000020040F01000A06200BF002084F82400D7
:1006600000BF0120BFE72068806800F00800002874
:10067000E7D12068806840F004002168886000F0BD
:100680003BFF054611E000F037FF401B0A280CD95C
:10069000A06A20F0020040F01000A06200BF00201D
:1006A00084F8240000BF01209DE72068806800F0E6
:1006B00004000028E7D1A06A20F0020040F0010009
:1006C000A06200BF002084F8240000BF30468AE703
:1006D0002C00002078B5024600230020009000BFC7
:1006E00092F82400012801D1022078BD012082F86F
:1006F000240000BF486807281DD21068446B0879A1
:10070000401E4FF4787595FAA5F5B5FA85F568435E
:100710001F25854024EA05000C79641E4FF4787685
:1007200096FAA6F6B6FA86F674430D68A5402843F5
:10073000146860633DE048680D281DD21068046BA2
:100740000879C01F4FF4787595FAA5F5B5FA85F5C7
:1007500068431F25854024EA05000C79E41F4FF407
:10076000787696FAA6F6B6FA86F674430D68A54032
:100770002843146820631CE01068C46A08790D38A7
:100780004FF4787595FAA5F5B5FA85F568431F25F8
:10079000854024EA05000C790D3C4FF4787696FAF2
:1007A000A6F6B6FA86F674430D68A5402843146889
:1007B000E06208680A281BD31068C46808780A3801
:1007C000382595FAA5F5B5FA85F5684307258540DE
:1007D00024EA05000C780A3C382696FAA6F6B6FA02
:1007E00086F674438D68A54028431468E06017E0DE
:1007F000106800690C78382595FAA5F5B5FA85F5E5
:100800006C430725A540A8430D78382696FAA6F62E
:10081000B6FA86F675438C68AC40204314682061B4
:100820000868102802D00868112827D1174C1068D2
:10083000A0421ED11068806800F40000F0B9106872
:10084000806840F400001468A0600868102815D182
:100850000F4800680F4CB0FBF4F000EB8000400044
:10086000009002E00098401E009000980028F9D106
:1008700004E0906A40F020009062012300BF002055
:1008800082F8240000BF18462FE700000024014032
:100890002C00002040420F00704770477047000056
:1008A0002DE9F0410446002700250026A84614B98A
:1008B0000120BDE8F081A06810B1606900B100BFFF
:1008C000A06A30B90020E06284F82400204600F0DD
:1008D00099F82046FFF78AFC0746A06A00F010004E
:1008E000002876D1002FFCD1A06A20F4885040F077
:1008F0000200A062E16960680843022292FAA2F253
:10090000B2FA82F2E168914008430643A068B0F56C
:10091000807F02D0A068012802D14FF4807000E0EF
:10092000002005436069012816D1E06860B9A0691C
:10093000401E4FF4604191FAA1F1B1FA81F1884073
:1009400040F40060054307E0A06A40F02000A06288
:10095000E06A40F00100E0622068406820F46940ED
:100960002843216848602068806824490840304353
:1009700021688860A068B0F5807F02D0A068012857
:1009800002D14FF4807000E00020B0F5807F09D1E3
:100990002069401E4FF4700191FAA1F1B1FA81F182
:1009A00000FA01F82068C06A20F4700040EA0800EC
:1009B0002168C8622068806811490840B04209D1A6
:1009C0000020E062A06A20F0020040F00100A06276
:1009D00011E00BE0A06A20F0020040F01000A062DD
:1009E000E06A40F00100E062012704E0A06A40F004
:1009F0001000A062012738465BE70000FDF7E1FF29
:100A0000FE0E1FFF10B58AB0044600BF3348806950
:100A100040F00400314988610846806900F0040014
:100A2000019000BF00BF00BF0846806940F400701D
:100A300088610846806900F40070019000BF00BF23
:100A4000022002908003049002A800F0D1FE00BFB3
:100A50002248406940F00100204948610846406949
:100A600000F00100019000BF00BF012006900320AC
:100A700007900020089006A9194800F0A9FB194822
:100A800019490860002048600021174881608021D2
:100A9000C160490001618900416120218161090231
:100AA000C16100F0E3F8104800F020FB00BF0E48E1
:100AB0002062446200BF002201210B2000F0A1FD52
:100AC0000B2000F091FD00221146122000F099FD4C
:100AD000122000F089FD0AB010BD00000010024095
:100AE0000008014008000240A40200202DE9F04166
:100AF00004460D461646002757492068884203D011
:100B000056492068884205D15348001D006800F40A
:100B1000702000E0002000287ED100BF94F824005F
:100B2000012802D10220BDE8F081012084F82400D0
:100B300000BF2046FFF7C2FB0746002F6DD1A06A19
:100B400040F60161884340F48070A0624349206808
:100B5000884209D14048001D006800F4702008B99F
:100B6000012002E0002000E0012078B1A06A20F41A
:100B70008010A0622068406800F4806000B3A06A22
:100B800020F4005040F48050A06219E0A06A40F4C4
:100B90008010A06230492068884203D02F49206825
:100BA000884205D12C48001D006800F4806000E0F8
:100BB000002028B1A06A20F4005040F48050A062C8
:100BC000A06A00F4805020B1E06A20F00600E062E4
:100BD00001E00020E06200BF002084F8240000BF94
:100BE0001F48216A88621F48216AC8621E48216A1C
:100BF00008636FF00200216808602068806840F494
:100C0000807021688860226802F14C0133462A46D0
:100C1000206A00F095FA01E01AE014E0206880688C
:100C200000F46020B0F5602F06D12068806840F4A1
:100C3000A000216888600CE02068806840F4801083
:100C40002168886005E000BF002084F8240000E0EF
:100C50000127384667E700000024014000280140D2
:100C60003F020008AF02000891020008014609B9DE
:100C70000120704791F82100022801D10120F8E7F6
:100C80000868006820F001000A68106000200A6807
:100C900010600A6850600A6890600A68D0604E4A26
:100CA0000868904201D1022027E04B4A14320868BC
:100CB000904201D1202020E0474A28320868904223
:100CC00001D1401519E0444A3C320868904202D1F3
:100CD0004FF4005011E0404A50320868904202D16F
:100CE0004FF4003009E03C4A64320868904202D177
:100CF0004FF4001001E04FF00070374A083A50609E
:100D0000354A0868904201D1082027E0324A14325F
:100D10000868904201D1802020E02F4A28320868DC
:100D2000904201D1C01419E02B4A3C32086890422D
:100D300002D14FF4004011E0274A50320868904237
:100D400002D14FF4002009E0234A6432086890423F
:100D500002D14FF4000001E04FF000601E4A083A53
:100D600050601D4A0868904201D1042027E01A4AC9
:100D700014320868904201D1402020E0164A2832FF
:100D80000868904201D1001519E0134A3C32086806
:100D9000904202D14FF4804011E00F4A503208686F
:100DA000904202D14FF4802009E00B4A6432086877
:100DB000904202D14FF4800001E04FF08060064A7B
:100DC000083A50600020486381F8210000BF81F894
:100DD000200000BF00BF4CE70800024010B50446E9
:100DE000C1480068C04A08322168914201D10821F7
:100DF00027E0BD4A1C322168914201D1802120E0C8
:100E0000B94A30322168914201D1C91419E0B64A79
:100E100044322168914202D14FF4004111E0B24ABC
:100E200058322168914202D14FF4002109E0AE4AC4
:100E30006C322168914202D14FF4000101E04FF081
:100E40000061084000284DD020680068C0F3C00051
:100E500090B32068006820F0080021680860A2496B
:100E600008312068884201D1082028E09E491C31C1
:100E70002068884201D1802021E09B4930312068E0
:100E8000884201D1C0141AE0974944312068884251
:100E900002D14FF4004012E0934958312068884253
:100EA00002D14FF400200AE08F496C31206888425B
:100EB00003D14FF4000002E014E04FF000608A49D3
:100EC0004860606B40F001006063042084F82100FA
:100ED00000BF002084F8200000BF206B10B1204626
:100EE000216B8847804800687F4A08322168914218
:100EF00001D1042127E07C4A1C322168914201D1B2
:100F0000402120E0784A30322168914201D1091510
:100F100019E0754A44322168914202D14FF4804170
:100F200011E0714A58322168914202D14FF4802178
:100F300009E06D4A6C322168914202D14FF4800180
:100F400001E04FF080610840A0B320680068C0F362
:100F5000800078B32068006800F0200028B920687D
:100F6000006820F00400216808605F4908312068AB
:100F7000884201D1042028E05B491C312068884266
:100F800001D1402021E0584930312068884201D108
:100F900000151AE0544944312068884202D14FF4C8
:100FA000804012E0504958312068884203D14FF404
:100FB00080200AE013E04C496C312068884202D15D
:100FC0004FF4800001E04FF08060474948601120F5
:100FD00084F82100E06A10B12046E16A884742485F
:100FE0000068414A08322168914201D1022127E07C
:100FF0003D4A1C322168914201D1202120E03A4A29
:1010000030322168914201D1491519E0364A443203
:101010002168914202D14FF4005111E0324A583216
:101020002168914202D14FF4003109E02E4A6C321E
:101030002168914202D14FF4001101E04FF000719C
:101040000840A0B320680068C0F3400078B320686F
:10105000006800F0200028B92068006820F0020035
:1010600021680860204908312068884201D10220A7
:1010700028E01D491C312068884201D1202021E050
:10108000194930312068884201D140151AE01649CB
:1010900044312068884202D14FF4005012E01249D6
:1010A00058312068884203D14FF400300AE01AE03A
:1010B0000D496C312068884202D14FF4001001E0E4
:1010C0004FF0007008494860606B6063012084F84D
:1010D000210000BF002084F8200000BFA06A10B1EA
:1010E0002046A16A884710BD000002400146002248
:1010F00009B90120704791F8210010B9002081F84A
:101100002000022081F821000868026843F6F07090
:101110008243D1E901031843CB6818430B69184394
:101120004B6918438B691843CB691843024308681D
:10113000026000204863012081F821000020D9E7E7
:101140002DE9F04104460D4616461F4600BF94F8AF
:101150002000012802D10220BDE8F081012084F89E
:10116000200000BF022084F821002068006820F0E1
:101170000100216808603B46324629462046FFF7B9
:10118000CBF92068006840F0020021680860206800
:10119000006840F00400216808602068006840F0A2
:1011A0000800216808602068006840F0010021689C
:1011B00008600020D0E731B5002400F09DF9044616
:1011C00000BF00F099F9001B00998842F9D338BD9F
:1011D0002DE9F84703460024002000258446002717
:1011E00000226EE14FF0010808FA02F4D1F8008005
:1011F00008EA0400A0427DD1DFF8D0A2D1F8048033
:10120000A8EB0A09D0453AD014DCB8F1030F50D04E
:1012100009DCB8F1000F31D0B8F1010F1CD0B8F1E2
:10122000020F49D120E0B8F1110F18D0B8F1120F18
:1012300042D11EE0B9F5881F25D006DCB9F5803F04
:1012400020D0B9F5801F37D11AE0B9F5001F18D0AA
:10125000B9F5041F30D117E0D1F80CC02DE0D1F85A
:101260000C8008F1040C28E0D1F80C8008F1080C7F
:1012700023E0D1F80C8008F10C0C1EE000BF00BF89
:1012800000BF00BF00BF00BFD1F80880B8F1000F59
:1012900002D14FF0040C0BE0D1F80880B8F1010F37
:1012A00003D14FF0080C1C6102E04FF0080C5C61A8
:1012B00003E04FF0000C00E000BF00BFFF2801D8A2
:1012C000984601E003F104084646FF2802D84FEA99
:1012D000820803E0A2F108084FEA88084746D6F8DA
:1012E00000804FF00F0909FA07F928EA09080CFAFB
:1012F00007F900E088E048EA0908C6F80080D1F85C
:10130000048008F08058B8F1805F7DD100BFDFF81D
:10131000C081D8F8188048F00108DFF8B491C9F806
:101320001880C846D8F8188008F00108CDF8008069
:1013300000BF00BF4FEAB9384FEA920958F8295068
:101340004FEA82784FEA18794FF00F0808FA09F847
:1013500025EA0805DFF87C81434502D14FF00008FB
:1013600016E0DFF87481434502D14FF001080FE029
:10137000DFF86881434502D14FF0020808E0DFF84A
:101380006081434502D14FF0030801E04FF00408AB
:101390004FEA82794FEA197908FA09F848EA05050F
:1013A000DFF840814FEA920948F82950D1F80480CB
:1013B00008F48038B8F5803F0AD1DFF82C81D8F8DE
:1013C000008048EA0008DFF82091C9F8008009E0B1
:1013D000DFF81481D8F8008028EA0008DFF80891C7
:1013E000C9F80080D1F8048008F40038B8F5003F4F
:1013F00010D1DFF8F48008F10408D8F8008048EA3A
:101400000008DFF8E49000E05AE009F10409C9F8A7
:1014100000800DE0DFF8D08008F10408D8F80080E3
:1014200028EA0008DFF8C09009F10409C9F8008033
:10143000D1F8048008F48018B8F5801F0ED1DFF8C9
:10144000A88008F10808D8F8008048EA0008DFF80A
:10145000989009F10809C9F800800DE0DFF888804C
:1014600008F10808D8F8008028EA0008DFF878902A
:1014700009F10809C9F80080D1F8048008F40018BF
:10148000B8F5001F0ED1DFF8608008F10C08D8F81D
:10149000008048EA0008DFF8509009F10C09C9F80B
:1014A00000800DE0DFF8408008F10C08D8F80080DB
:1014B00028EA0008DFF8309009F10C09C9F800802B
:1014C000521C102AFFF48EAEBDE8F8870000111000
:1014D0000010024000080140000C014000100140D3
:1014E0000014014008000140000401400AB10161FC
:1014F00001E00B0403617047014800687047000079
:101500002800002002480068401C0149086070471C
:101510002800002010B50848006840F01000064977
:101520000860032000F0ACF8002000F007F800F09D
:1015300017F8002010BD00000020024070B50446DE
:1015400000F082FB4FF47A71B0FBF1F5284601F010
:1015500058F800222146501E00F053F8002070BDBC
:1015600008B500BF1F48806940F001001D4988612F
:101570000846806900F00100009000BF00BF032012
:1015800000F07EF8002211466FF00B0000F039F8F1
:10159000002211466FF00A0000F033F800221146D5
:1015A0006FF0090000F02DF800221146501F00F0E6
:1015B00028F800221146101F00F023F800221146DF
:1015C000901E00F01EF800221146501E00F019F87F
:1015D00000221146052000F014F8052000F004F860
:1015E00008BD00000010024000BF00F01F020121F2
:1015F00091404209920002F1E022C2F8001100BFBE
:1016000070472DE9F05F80460D461646002701F031
:10161000A1F9074639462A46334601F00700C0F1D2
:10162000070ABAF1040F02D94FF0040A01E0C0F131
:10163000070AD14600F1040ABAF1070F02D24FF0AF
:10164000000A01E0A0F1030AD4464FF0010A0AFAA9
:1016500009FAAAF1010A0AEA020A0AFA0CFA4FF098
:10166000010B0BFA0CFBABF1010B0BEA030B4AEA83
:101670000B042146404601F075F9BDE8F09F0000DB
:1016800000BF00F00702064B19684FF6FF03194030
:10169000044B0B4343EA0221014B196000BF704722
:1016A0000CED00E00000FA052DE9F04385B0064698
:1016B00047A30FCB01AC0FC449A0006800900024E1
:1016C000A046A14600250027012E3DD0022E65D060
:1016D000102E77D143484468006800F0807068B3EA
:1016E00004F470104FF4701191FAA1F1B1FA81F184
:1016F000C84001A90F5C04F48030A0B139484068AB
:1017000000F40030710391FAA1F1B1FA81F1C840FF
:101710001DF8009004F4803040B13348B0FBF9F07C
:1017200000FB07F502E0314807FB00F52D48406853
:1017300000F48000B0F5800F01D1A84603E06800F6
:101740000321B0FBF1F83EE02648046A04F440703F
:10175000B0F5807F05D104F0020010B14FF40048CD
:101760001BE004F44070B0F5007F07D11D48406ACB
:1017700000F0020010B149F640480EE004F4407059
:10178000B0F5407F07D11748006800F4003010B171
:101790004FF2244801E04FF0000814E000F070FA26
:1017A00001461048406800F440404FF4804292FAED
:1017B000A2F2B2FA82F2D040401C4000B1FBF0F835
:1017C00001E0FFE700BF00BF404605B0BDE8F08381
:1017D00002030405060708090A0B0C0D0E0F101072
:1017E000010200000010024000127A0000093D00D2
:1017F000F8B5044600260025207800F001000028F6
:1018000077D000BF5648C06940F080505449C86145
:101810000846C06900F08050009000BF00BF5148EA
:10182000006840F480704F490860FFF765FE064687
:1018300006E0FFF761FE801B642801D90320F8BD94
:101840004848006800F480700028F2D04448006ADC
:1018500000F44075002D5ED0A08800F44070A842CE
:1018600059D03F48006A20F440750120010491FAE4
:10187000A1F1B1FA81F13C4A02EB8101C1F8000407
:1018800000204FF4803191FAA1F1B1FA81F102EB1D
:101890008101C1F800043248056205F0010048B337
:1018A000FFF72AFE064608E0FFF726FE801B41F2FE
:1018B0008831884201D90320C1E74020022191FAF2
:1018C000A1F1B1FA81F108430121B1EB601F02D10E
:1018D0002348006811E04020022191FAA1F1B1FAF9
:1018E00081F108430221B1EB601F04D11C48006A5A
:1018F00003E018E00FE01A48406A4021022292FA01
:10190000A2F2B2FA82F2114301F01F0201219140CA
:1019100008400028C8D01248006A20F4407061686E
:1019200008430F490862207800F00200022807D11E
:101930000B48406820F44040A168084308494860CB
:10194000207800F01000102807D10548406820F4E6
:101950008000E16808430249486000206FE700000A
:1019600000100240007000400000424270B5044682
:101970000D4600269F48006800F00700A8420ED2DE
:101980009C48006820F0070028439A4908600846F0
:10199000006800F00700A84201D0012070BD207847
:1019A00000F00200022807D19348406820F0F000C0
:1019B000A168084390494860207800F001000028A1
:1019C0007CD0606801282DD12020010391FAA1F17B
:1019D000B1FA81F108430121B1EB601F02D18648C1
:1019E00000680FE02020010391FAA1F1B1FA81F122
:1019F00008430221B1EB601F02D17F48006A01E079
:101A00007D48406A20210A0392FAA2F2B2FA82F2D9
:101A1000114301F01F02012191400840002860D1CC
:101A20000120BBE7606802282CD12020010591FA33
:101A3000A1F1B1FA81F108430121B1EB601F02D19C
:101A40006D4800680FE02020010591FAA1F1B1FA7C
:101A500081F108430221B1EB601F02D16648006AA0
:101A600001E06548406A20210A0592FAA2F2B2FA22
:101A700082F2114301F01F0201219140084078BB1E
:101A800001208BE72020022191FAA1F1B1FA81F126
:101A900008430121B1EB601F02D15748006810E0F4
:101AA0002020022191FAA1F1B1FA81F1084302212B
:101AB000B1EB601F03D15048006A02E054E04E4889
:101AC000406A2021022292FAA2F2B2FA82F2114373
:101AD00001F01F0201219140084008B901205DE793
:101AE000FFE74548406820F0030061680843424929
:101AF0004860FFF701FD06466068012810D108E044
:101B0000FFF7FAFC801B41F28831884201D903209B
:101B100044E73948406800F00C000428F0D123E085
:101B20006068022810D108E0FFF7E6FC801B41F254
:101B30008831884201D9032030E72F48406800F0FF
:101B40000C000828F0D10FE008E0FFF7D5FC801B5F
:101B500041F28831884201D903201FE726484068B6
:101B600000F00C000028F0D12248006800F00700C7
:101B7000A8420ED91F48006820F0070028431D49DD
:101B800008600846006800F00700A84201D0012064
:101B900004E7207800F00400042807D116484068C4
:101BA00020F4E060E168084313494860207800F0C1
:101BB0000800082808D11048406820F460502169C6
:101BC00040EAC1000C49486000F070F80A494968D1
:101BD00001F0F001F02292FAA2F2B2FA82F2D140C0
:101BE000064A515CC840064908600020FFF7A6FC81
:101BF0000020D3E60020024000100240BC33000861
:101C00002C0000200F2202600D4A526802F00302ED
:101C100042600B4A526802F0F0028260084A526841
:101C200002F4E062C260064A526802F46052D208CE
:101C30000261044A126802F007020A60704700005D
:101C40000010024000200240014800687047000078
:101C50002C00002000B5FFF7F7FF0749496801F4A1
:101C6000E0614FF4E06292FAA2F2B2FA82F2D1405D
:101C7000024A515CC84000BD00100240CC3300084D
:101C800000B5FFF7E1FF0749496801F460514FF4DF
:101C9000605292FAA2F2B2FA82F2D140024A515C48
:101CA000C84000BD00100240CC330008F0B585B03C
:101CB0000FF28C0C9CE8E01001A8A0E8E01024A52D
:101CC0002D68009500210024002200230020214DD2
:101CD000696801F00C056DB3042D02D0082D28D1E0
:101CE00001E01D4828E001F470154FF4701696FAD3
:101CF000A6F6B6FA86F6F54001AE735D01F48035BE
:101D000095B1144D6D6805F400354FF4003696FA20
:101D1000A6F6B6FA86F6F5401DF805400E4DB5FB61
:101D2000F4F505FB03F202E00C4D03FB05F210464F
:101D300002E000BF084800BF00BF05B0F0BD0000D2
:101D400002030405060708090A0B0C0D0E0F1010FC
:101D5000010200000010024000127A0000093D005C
:101D600038B504460025207800F0010000287CD01A
:101D7000F848406800F00C0004280CD0F548406892
:101D800000F00C00082837D1F248406800F4803099
:101D9000B0F5803F30D12020010391FAA1F1B1FAD2
:101DA00081F108430121B1EB601F02D1E9480068CD
:101DB0000FE02020010391FAA1F1B1FA81F108436B
:101DC0000221B1EB601F02D1E248006A01E0E14864
:101DD000406A20210A0392FAA2F2B2FA82F2114377
:101DE00001F01F020121914008400028BFD0606827
:101DF00000283AD1012038BD00BF6068B0F5803FAF
:101E000006D1D448006840F48030D249086028E008
:101E1000606858B9CF48006820F48030CD49086028
:101E20000846006820F4802008601AE06068B0F579
:101E3000A02F0BD1C748006840F48020C549086036
:101E40000846006840F4803008600AE0C148006835
:101E500020F48030BF4908600846006820F48020E4
:101E6000086000BF6068C8B300E06FE0FFF744FBA4
:101E7000054606E0FFF740FB401B642801D903201C
:101E8000B9E72020010391FAA1F1B1FA81F10843E9
:101E90000121B1EB601F02D1AE4800680FE02020A5
:101EA000010391FAA1F1B1FA81F108430221B1EBEA
:101EB000601F02D1A748006A01E0A648406A2021BD
:101EC0000A0392FAA2F2B2FA82F2114301F01F025F
:101ED0000121914008400028CCD037E0FFE7FFF710
:101EE0000BFB054606E0FFF707FB401B642801D902
:101EF000032080E72020010391FAA1F1B1FA81F1DA
:101F000008430121B1EB601F02D1924800680FE045
:101F10002020010391FAA1F1B1FA81F108430221D5
:101F2000B1EB601F02D18B48006A01E08948406A2A
:101F300020210A0392FAA2F2B2FA82F2114301F0CE
:101F40001F020121914008400028CCD1207800F0E8
:101F5000020002284ED17F48406800F00C0050B1CA
:101F60007C48406800F00C00082844D1794840685B
:101F700000F4803078BB2020022191FAA1F1B1FA5F
:101F800081F108430121B1EB601F02D17148006863
:101F90000FE02020022191FAA1F1B1FA81F108436A
:101FA0000221B1EB601F02D16A48006A01E0694872
:101FB000406A2021022292FAA2F2B2FA82F211437E
:101FC00001F01F0201219140084028B12069012839
:101FD00002D001200FE70EE05E48006820F0F80014
:101FE000F82292FAA2F2B2FA82F2616991400843B1
:101FF0005849086091E02069F0B3012090FAA0F1FF
:10200000B1FA81F1544A42F82100FFF775FA05460A
:1020100006E0FFF771FA401B022801D90320EAE627
:102020002020022191FAA1F1B1FA81F108430121A6
:10203000B1EB601F02D1474800680FE02020022169
:1020400091FAA1F1B1FA81F108430221B1EB601FCD
:1020500002D14048006A01E03E48406A2021022245
:1020600092FAA2F2B2FA82F2114301F01F020121A8
:1020700091400840002800E00FE0CAD035480068D1
:1020800020F0F800F82292FAA2F2B2FA82F2616924
:10209000914008432F4908603FE00020012191FA58
:1020A000A1F1B1FA81F12C4A42F82100FFF724FA9C
:1020B000054606E0FFF720FA401B022801D903205D
:1020C00099E62020022191FAA1F1B1FA81F10843A9
:1020D0000121B1EB601F02D11E4800680FE02020F3
:1020E000022191FAA1F1B1FA81F108430221B1EB89
:1020F000601F02D11748006A01E01648406A20219B
:10210000022292FAA2F2B2FA82F2114301F01F0205
:102110000121914008400028CCD1207800F008002F
:1021200008284BD1A069A8B3012191FAA1F0B0FA17
:1021300080F0094A02EB8000C0F88014FFF7DCF958
:1021400005460BE0FFF7D8F9401B022806D903200B
:1021500051E60000001002400000424260200221CF
:1021600091FAA1F1B1FA81F108430121B1EB601FAD
:1021700002D1F948006810E06020022191FAA1F133
:10218000B1FA81F108430221B1EB601F03D1F2489B
:10219000006A02E013E0F048406A6021022292FAED
:1021A000A2F2B2FA82F2114301F01F020121914022
:1021B00008400028C6D00120FEF7FDFF41E00020C6
:1021C000012191FAA1F1B1FA81F1E44A02EB810116
:1021D000C1F88004FFF790F9054606E0FFF78CF997
:1021E000401B022801D9032005E66020022191FA54
:1021F000A1F1B1FA81F108430121B1EB601F02D1D5
:10220000D54800680FE06020022191FAA1F1B1FAEF
:1022100081F108430221B1EB601F02D1CE48006A70
:1022200001E0CD48406A6021022292FAA2F2B2FA9D
:1022300082F2114301F01F02012191400840002861
:10224000CCD1207800F00400042875D100BFC2482A
:10225000C06940F08050C049C8610846C06900F0BC
:102260008050009000BF00BFBD48006840F48070FF
:10227000BB490860FFF740F9054606E0FFF73CF967
:10228000401B642801D90320B5E5B548006800F477
:1022900080700028F2D000BFE068012806D1AE4867
:1022A000006A40F00100AC49086227E0E06858B9D4
:1022B000A948006A20F00100A74908620846006AA0
:1022C00020F00400086219E0E06805280BD1A2485C
:1022D000006A40F00400A04908620846006A40F025
:1022E000010008620AE09C48006A20F001009A4957
:1022F00008620846006A20F00400086200BFE06837
:10230000D0B3FFF7F9F8054608E0FFF7F5F8401BF2
:1023100041F28831884201D903206CE54020022136
:1023200091FAA1F1B1FA81F108430121B1EB601FEB
:1023300003D18948006810E058E04020022191FA5A
:10234000A1F1B1FA81F108430221B1EB601F02D182
:102350008148006A01E08048406A4021022292FAE6
:10236000A2F2B2FA82F2114301F01F020121914060
:1023700008400028C9D039E0FFE7FFF7BDF805465F
:1023800008E0FFF7B9F8401B41F28831884201D9D3
:10239000032030E54020022191FAA1F1B1FA81F148
:1023A00008430121B1EB601F02D16B4800680FE0C8
:1023B0004020022191FAA1F1B1FA81F108430221F2
:1023C000B1EB601F02D16448006A01E06248406AD4
:1023D0004021022292FAA2F2B2FA82F2114301F0F3
:1023E0001F020121914008400028CAD1E06900285D
:1023F00073D05948406800F00C0008286ED0E0699E
:1024000002286CD100204FF0807191FAA1F1B1FA4D
:1024100081F1524A42F82100FFF76EF8054606E0C6
:10242000FFF76AF8401B022801D90320E3E42020CB
:10243000010591FAA1F1B1FA81F108430121B1EB53
:10244000601F02D1444800680FE02020010591FA86
:10245000A1F1B1FA81F108430221B1EB601F02D171
:102460003D48006A01E03C48406A20210A0592FA92
:10247000A2F2B2FA82F2114301F01F02012191404F
:1024800008400028CCD1206AB0F5803F07D13248FF
:10249000406820F40030A16808432F494860D4E91F
:1024A000080108432C49496821F4741108432A495A
:1024B00048600121080690FAA0F0B0FA80F0274A9F
:1024C00042F82010FFF718F8054609E0FFF714F866
:1024D000401B022804D903208DE479E076E02CE04B
:1024E0002020010591FAA1F1B1FA81F108430121FF
:1024F000B1EB601F02D1184800680FE020200105F1
:1025000091FAA1F1B1FA81F108430221B1EB601F08
:1025100002D11148006A01E00F48406A20210A05F3
:1025200092FAA2F2B2FA82F2114301F01F020121E3
:10253000914008400028C9D04AE000204FF0807147
:1025400091FAA1F1B1FA81F1044A42F82100FEF7B3
:10255000D3FF05460DE0000000100240000042429B
:1025600000700040FEF7C8FF401B022801D903207D
:1025700041E42020010591FAA1F1B1FA81F108436B
:102580000121B1EB601F02D1124800680FE020204A
:10259000010591FAA1F1B1FA81F108430221B1EBF1
:1025A000601F02D10B48006A01E00A48406A2021FE
:1025B0000A0592FAA2F2B2FA82F2114301F01F0266
:1025C0000121914008400028CCD101E0012012E413
:1025D000002010E400100240042808D14FF0E02150
:1025E000096941F004014FF0E022116107E04FF06A
:1025F000E021096921F004014FF0E02211617047E8
:10260000704770B504462546681EB0F1807F01D33F
:1026100001200FE0681E4FF0E02148610F214FF0CC
:10262000FF3000F09FF900204FF0E0218861072083
:102630000861002070BD10B5FFF7E2FF10BD024633
:1026400000BF92F83800012801D102207047012014
:1026500082F8380000BF022082F839001068406814
:1026600020F0700013685860106840680B681843C9
:10267000136858601068806820F0800013689860C4
:10268000106880684B68184313689860012082F8CE
:10269000390000BF002082F8380000BF00BFD5E736
:1026A00010B504460CB9012010BD94F8390028B9C2
:1026B000002084F83800204600F00CF8022084F84E
:1026C0003900211D206800F005FA012084F8390046
:1026D0000020E9E708B500BF0649C96941F00201D9
:1026E000044AD1611146C96901F00201009100BF9D
:1026F00000BF08BD0010024001460868C06840F0F5
:1027000001000A68D0600868006840F001000A68AB
:10271000106000207047000030B50146274800686F
:10272000274B1B68984203DA24480068244B186042
:10273000202905DB7F2903DCA1F12000C1B206E0DE
:10274000C02903DBA1F16000C1B200E05F210022DB
:1027500010E001EB81001B4B1844805C4006030E27
:10276000164804680068401C144D2860164803553C
:10277000501CC2B2052AECDB10480068134B1B68E2
:10278000984203DD0D480068104B186000230E4886
:102790000A4C246803550948006840F2F713984230
:1027A00004D10020054B1860022030BD03480068AA
:1027B000401C024B18600020F7E700000C000020CE
:1027C000040000207C2F00083F00002008000020AB
:1027D00002460D2A01DC052901DD0120704702EBCC
:1027E00042004000C1EBC10303EB430300EB830055
:1027F000014B18600020F1E70C00002070B5054681
:102800000C46002204210A48FEF770FE012C05D177
:10281000012208210648FEF769FE04E00022082193
:102820000348FEF763FE284600F0B2F870BD0000D2
:102830000008014010B54FF4FC710748FDF779FC22
:1028400000200649086040F2F710054908600120A1
:102850000449087010BD00003F0000200400002063
:1028600008000020100000202DE9F04107468846AE
:10287000144641463846FFF7ABFF267809E030465C
:10288000FFF74AFF0546012D01D1BDE8F081641C28
:102890002678002EF3D10020F7E7000070B5294814
:1028A0000068002803DA00202649086008E025486F
:1028B0000068B0F5FC7F03DB40F2F71021490860A7
:1028C00021480068002803DA00201F49086008E05A
:1028D0001D480068B0F5FC7F03DB40F2F7101A4991
:1028E000086018480068542190FBF1F201FB1200C7
:1028F000C0B240F0800500212846FFF77FFF114855
:102900000068542190FBF1F0C0B240F04005002176
:102910002846FFF773FF0B48046805E00B49085D84
:102920000121FFF76BFF641C074800688442F5DD56
:1029300040F2F71003490860002003490860044989
:10294000087070BD04000020080000203F00002037
:102950001000002002480068C0F302207047000009
:102960000CED00E010B5002807DA0A07140E054A3E
:1029700000F00F031B1FD45403E00A07130E024A92
:10298000135410BD18ED00E000E400E070470000B3
:1029900070B504460025082680251FE0701EC6B2CB
:1029A00004EA050028B1012210210E48FEF79EFD21
:1029B00004E0002210210B48FEF798FD012220219F
:1029C0000848FEF793FD002000E0401C0A28FCDBCD
:1029D000002220210348FEF789FD6D10002EDDD175
:1029E00070BD00000008014010B5FEF78BFDFFF739
:1029F00022FE10BD10B594B001200A9000040B9087
:102A000000200C9002201190C10312914FF4E011AC
:102A100013910AA8FFF7A4F908B1FDF78DFD0F2067
:102A2000059002200690002007904FF480600890E7
:102A300000200990022105A8FEF798FF08B1FDF7D4
:102A40007BFD022001908003039001A8FEF7D0FED9
:102A500008B1FDF771FDFFF7F7F84FF47A71B0FB9D
:102A6000F1F42046FFF7CDFD0420FFF7B5FD00226D
:102A70001146501EFEF7C5FD14B010BD1148006888
:102A800040F001000F490860084640680E490840C0
:102A90000C494860084600680C490840094908602C
:102AA0000846006820F4802008600846406820F44A
:102AB000FE0048604FF41F008860C80304490860A6
:102AC00070470000001002400000FFF8FFFFF6FE14
:102AD00008ED00E000220268164B984208D0B0F1E1
:102AE000804F05D0144B984202D0144B984203D12A
:102AF00022F070024B681A430E4B984208D0B0F196
:102B0000804F05D00C4B984202D00C4B984203D119
:102B100022F44072CB681A4302608B68C3620B6870
:102B20008362044B984201D10B6903630123436123
:102B300070470000002C01400004004000080040E5
:102B400030B589B0142102A8FDF7F3FA002500BFC3
:102B500001A902A8FFF756F8059818B9FFF77AF807
:102B6000054602E0FFF776F845004FF6FE70B5FB2C
:102B7000F0F0441C11481249086004EB8400400046
:102B8000B5FBF0F0401EC860601E486000210C4894
:102B9000016181604161FFF783FD08B1FDF7CEFC63
:102BA000202007900020089007A90548FFF747FD5F
:102BB00008B1FDF7C3FC09B030BD000000040040BF
:102BC000680200200FB4084B10B504A902AA0398AC
:102BD00000F01CF8044602A9002000F0F3F820469B
:102BE00010BC5DF814FB0000C52D000802E008C809
:102BF000121F08C1002AFAD170477047002001E077
:102C000001C1121F002AFBD1704700002DE9FF4FC0
:102C10008BB09A460F460546002606E025280BD0C5
:102C200052460D9990476D1C761C28780028F5D1E6
:102C30000FB03046BDE8F08F0024A0460122604965
:102C400000E0044315F8013F203B02FA03F008427C
:102C5000F7D128782E2817D115F8010F44F0040475
:102C60002A280ED06FF02F022878A0F13001092910
:102C70000AD808EB880102EB410100EB01086D1C4A
:102C8000F2E757F8048B6D1C287869283ED006DCE3
:102C90000028CDD063280BD0642804D136E07328F7
:102CA00010D075284BD052460D999047761C85E080
:102CB00017F8040B8DF8000000208DF80100E9469C
:102CC000012003E057F8049B4FF0FF3061074FF0FD
:102CD000000401D40AE0641C44450DDA8442FADBA6
:102CE00019F804100029F6D106E0641C8442FCDBCC
:102CF00019F804100029F8D1264404E019F8010B52
:102D000052460D999047641EF8D257E001CF4FF01C
:102D10000A0B002802DA40422D2102E0210504D5E9
:102D20002B218DF82410012103E0E10705D020219B
:102D3000F7E70DF1200908910CE00021F9E701CF38
:102D40004FF00A0BF9E75946FDF7FEF901F13002A1
:102D500009F8012D0028F6D1ADEB090000F1200B98
:102D6000600701D44FF00108D84502DDA8EB0B0045
:102D700000E000208046002406E009A85246005DDD
:102D80000D999047641C761C08988442F5DB04E09A
:102D9000302052460D999047761CB8F10001A8F1F9
:102DA0000108F5DC05E019F8010B52460D99904732
:102DB000761CBBF10001ABF1010BF4DC6D1C34E7B8
:102DC000092801000A68531C0B601070704700004E
:102DD00000B585B0FDF7E0F91848FDF7F9FB08B13B
:102DE000FDF7ACFBFFF7ACFE1548FFF785FC08B11B
:102DF000FDF7A4FB00BF1348806940F008001149AB
:102E000088610846806900F00800009000BF00BF9C
:102E10004FF400500190012002900220049001A97B
:102E20000948FEF7D5F9012208490448FDF75EFE7E
:102E300008B1FDF783FB05B000BD0000380200209B
:102E40006802002000100240000C01402000002019
:102E500000B585B000BF2548806940F004002349D3
:102E600088610846806900F00400009000BF00BF40
:102E700000223E211E48FEF739FB3E200190012032
:102E800002900320049001A91948FEF7A1F90A2035
:102E9000FEF791F9002202211548FEF727FB0A20D0
:102EA000FEF789F9012202211148FEF71FFB0021DC
:102EB0002120FFF7A3FC0021C820FFF79FFC002181
:102EC0000620FFF79BFC00211320FFF797FC002151
:102ED0002020FFF793FC00210C20FFF78FFCFFF769
:102EE000A9FCFFF7DBFC05B000BD000000100240AC
:102EF00000080140FEF70EFBFFF77CFDFFF7A8FF7F
:102F000014A218A11848FFF75DFEFFF793FC164ABC
:102F100000210846FFF7A8FCFFF7C0FCFFF758FFA9
:102F200016E04FF47A70FEF746F90520FDF708FB2E
:102F300001280DD105220DA10B48FFF743FEFFF735
:102F400079FC094A00210846FFF78EFCFFF7A6FC32
:102F5000E7E70000416E616C6F67427574746F6ED5
:102F600000000000257300003000002042746E2035
:102F7000256920636C69636B6564000000000000D4
:102F80000000005F00000007000700147F147F149A
:102F9000242A7F2A124C2C1068643649552250008E
:102FA00005030000001C2241000041221C001408FF
:102FB0003E081408083E08080000503000101010A9
:102FC0001010006060000020100804023E514945C6
:102FD0003E00427F400042615149462141454B310C
:102FE0001814127F1027454545393C4A494930019C
:102FF000710905033649494936064949291E0036F3
:103000003600000056360000081422410014141443
:103010001414004122140802015109063249794171
:103020003E7E1111117E7F494949363E4141412280
:103030007F4141221C7F494949417F090909013EDD
:103040004149497A7F0808087F00417F41002040BC
:10305000413F017F081422417F404040407F020CE5
:10306000027F7F0408107F3E4141413E7F090909EC
:10307000063E4151215E7F09192946464949493199
:1030800001017F01013F4040403F1F2040201F3F82
:103090004038403F63140814630708700807615103
:1030A000494543007F41410002040810200041418E
:1030B0007F0004020102044040404040000102043D
:1030C000002054545478B46C24362D3844444420A1
:1030D000384444487F3854545418087E0901020C7F
:1030E0005252523E7F0804047800447D4000204044
:1030F000443D007F1028440000417F40007C0418BC
:103100000478242424242438444444387C1414149B
:1031100008081414187C7C080404084854545420EB
:10312000043F4440203C4040207C1C2040201C3C6C
:103130004030403C44281028440C5050503C4464DB
:10314000544C44000836410000007F000000413626
:1031500008000804081008FFFFFFFFFF7C1211128F
:103160007C7F494949317F494949367F0101010145
:10317000603F213F607F4949494177087F087722B6
:10318000414949367F1008047F7E1009047E7F087C
:10319000142241403E01017F7F020C027F7F08081C
:1031A000087F3E4141413E7F0101017F7F090909BE
:1031B000063E4141412201017F0101074848483F45
:1031C0000E117F110E63140814633F20203F600727
:1031D0000808087F7F407E407F3F203F207F017F9F
:1031E0004848307F4830007F007F484830224149BE
:1031F000493E7F083E413E462919097F20545454D8
:10320000783C4A4A4A317C545428007C04040C001F
:10321000603C243C6038545454186C107C106C0092
:10322000445454287C2010087C7C2112097C7C109A
:10323000284400403804047C7C0810087C7C101072
:10324000107C38444444387C0404047C7C141414FA
:1032500008384444440004047C04040C5050503C9E
:1032600008147C140844281028443C20203C600C9E
:103270001010107C7C407C407C3C203C207C047CFA
:103280005050207C5020007C007C5050202844541A
:1032900054387C10384438485434147C0000000002
:1032A000000000000000000000007878787800003E
:1032B000000000000000000000000000000000000E
:1032C00000000000000000000000000000FCFEFE06
:1032D00006060606FEFEFC00003F7F7F6060606021
:1032E0007F7F3F00000010181CFEFEFE0000000063
:1032F00000006060607F7F7F60606000001C1E1EB9
:10330000060686C6FEFE7C000070787C7E6F6763D2
:1033100071707000000C0E0E06868686FEFE7C0024
:1033200000307070606161617F7F3E0000FEFEFED4
:1033300000000000FEFEFE0000030303030303037E
:103340007F7F7F0000FEFEFEC6C6C6C6C6C68600DC
:1033500000317171606060607F7F3F0000FCFEFEA5
:10336000868686868E8E0C00003F7F7F616161615C
:103370007F7F3F00000E0E0E060686C6FEFE7E0014
:10338000000000007E7F7F0301000000007CFEFE45
:1033900086868686FEFE7C00003E7F7F61616161DD
:1033A0007F7F3E0000FCFEFE86868686FEFEFC00D9
:1033B00000307171616161617F7F3F00000000003A
:1033C00000000000010203040607080900000000D5
:1033D00001020304F4330008000000203000000064
:1033E000EC2B00082434000830000020B006000058
:1033F000FC2B00080000000000000000000000009E
:10340000000000000030303030303000000000009C
:103410001F0000000000000000000000000000008D
:0434200000A24A04B8
:04000005080000ED02
:00000001FF
